{
  "address": "0x7d0B0B6E535eaF6Be1a448FE07797E0A6fBEB9b1",
  "abi": [
    {
      "inputs": [
        {
          "internalType": "address",
          "name": "_token",
          "type": "address"
        },
        {
          "internalType": "address",
          "name": "_owner",
          "type": "address"
        }
      ],
      "stateMutability": "nonpayable",
      "type": "constructor"
    },
    {
      "inputs": [
        {
          "internalType": "address",
          "name": "owner",
          "type": "address"
        }
      ],
      "name": "OwnableInvalidOwner",
      "type": "error"
    },
    {
      "inputs": [
        {
          "internalType": "address",
          "name": "account",
          "type": "address"
        }
      ],
      "name": "OwnableUnauthorizedAccount",
      "type": "error"
    },
    {
      "inputs": [],
      "name": "ReentrancyGuardReentrantCall",
      "type": "error"
    },
    {
      "anonymous": false,
      "inputs": [
        {
          "indexed": true,
          "internalType": "address",
          "name": "user",
          "type": "address"
        }
      ],
      "name": "AccountCreated",
      "type": "event"
    },
    {
      "anonymous": false,
      "inputs": [
        {
          "indexed": true,
          "internalType": "uint256",
          "name": "eventId",
          "type": "uint256"
        }
      ],
      "name": "CheckInClosed",
      "type": "event"
    },
    {
      "anonymous": false,
      "inputs": [
        {
          "indexed": true,
          "internalType": "uint256",
          "name": "eventId",
          "type": "uint256"
        }
      ],
      "name": "EventCanceled",
      "type": "event"
    },
    {
      "anonymous": false,
      "inputs": [
        {
          "indexed": true,
          "internalType": "uint256",
          "name": "eventId",
          "type": "uint256"
        }
      ],
      "name": "EventCompleted",
      "type": "event"
    },
    {
      "anonymous": false,
      "inputs": [
        {
          "indexed": true,
          "internalType": "uint256",
          "name": "eventId",
          "type": "uint256"
        },
        {
          "indexed": true,
          "internalType": "address",
          "name": "organizer",
          "type": "address"
        }
      ],
      "name": "EventCreated",
      "type": "event"
    },
    {
      "anonymous": false,
      "inputs": [
        {
          "indexed": true,
          "internalType": "uint256",
          "name": "eventId",
          "type": "uint256"
        }
      ],
      "name": "EventPublished",
      "type": "event"
    },
    {
      "anonymous": false,
      "inputs": [
        {
          "indexed": true,
          "internalType": "address",
          "name": "previousOwner",
          "type": "address"
        },
        {
          "indexed": true,
          "internalType": "address",
          "name": "newOwner",
          "type": "address"
        }
      ],
      "name": "OwnershipTransferred",
      "type": "event"
    },
    {
      "anonymous": false,
      "inputs": [
        {
          "indexed": true,
          "internalType": "uint256",
          "name": "eventId",
          "type": "uint256"
        },
        {
          "indexed": true,
          "internalType": "address",
          "name": "participant",
          "type": "address"
        }
      ],
      "name": "ParticipantCheckedIn",
      "type": "event"
    },
    {
      "anonymous": false,
      "inputs": [
        {
          "indexed": false,
          "internalType": "uint256",
          "name": "fullRefundHours",
          "type": "uint256"
        },
        {
          "indexed": false,
          "internalType": "uint256",
          "name": "partialRefundHours",
          "type": "uint256"
        },
        {
          "indexed": false,
          "internalType": "uint256",
          "name": "partialRefundPercent",
          "type": "uint256"
        },
        {
          "indexed": false,
          "internalType": "uint256",
          "name": "attendeeSharePercent",
          "type": "uint256"
        }
      ],
      "name": "PolicyUpdated",
      "type": "event"
    },
    {
      "anonymous": false,
      "inputs": [
        {
          "indexed": true,
          "internalType": "uint256",
          "name": "eventId",
          "type": "uint256"
        },
        {
          "indexed": true,
          "internalType": "address",
          "name": "participant",
          "type": "address"
        }
      ],
      "name": "RegistrationCanceled",
      "type": "event"
    },
    {
      "anonymous": false,
      "inputs": [
        {
          "indexed": true,
          "internalType": "uint256",
          "name": "eventId",
          "type": "uint256"
        },
        {
          "indexed": true,
          "internalType": "address",
          "name": "participant",
          "type": "address"
        }
      ],
      "name": "RegistrationConfirmed",
      "type": "event"
    },
    {
      "anonymous": false,
      "inputs": [
        {
          "indexed": true,
          "internalType": "uint256",
          "name": "eventId",
          "type": "uint256"
        },
        {
          "indexed": true,
          "internalType": "address",
          "name": "participant",
          "type": "address"
        },
        {
          "indexed": false,
          "internalType": "uint256",
          "name": "amount",
          "type": "uint256"
        }
      ],
      "name": "RewardsClaimed",
      "type": "event"
    },
    {
      "anonymous": false,
      "inputs": [
        {
          "indexed": true,
          "internalType": "address",
          "name": "user",
          "type": "address"
        },
        {
          "indexed": false,
          "internalType": "uint256",
          "name": "amount",
          "type": "uint256"
        }
      ],
      "name": "Withdrawal",
      "type": "event"
    },
    {
      "inputs": [],
      "name": "COMPLETION_DEADLINE",
      "outputs": [
        {
          "internalType": "uint256",
          "name": "",
          "type": "uint256"
        }
      ],
      "stateMutability": "view",
      "type": "function"
    },
    {
      "inputs": [],
      "name": "attendeeDepositAmount",
      "outputs": [
        {
          "internalType": "uint256",
          "name": "",
          "type": "uint256"
        }
      ],
      "stateMutability": "view",
      "type": "function"
    },
    {
      "inputs": [
        {
          "internalType": "address",
          "name": "",
          "type": "address"
        }
      ],
      "name": "balances",
      "outputs": [
        {
          "internalType": "uint256",
          "name": "",
          "type": "uint256"
        }
      ],
      "stateMutability": "view",
      "type": "function"
    },
    {
      "inputs": [
        {
          "internalType": "uint256",
          "name": "_eventId",
          "type": "uint256"
        }
      ],
      "name": "cancelEvent",
      "outputs": [],
      "stateMutability": "nonpayable",
      "type": "function"
    },
    {
      "inputs": [
        {
          "internalType": "uint256",
          "name": "_eventId",
          "type": "uint256"
        }
      ],
      "name": "cancelRegistration",
      "outputs": [],
      "stateMutability": "nonpayable",
      "type": "function"
    },
    {
      "inputs": [
        {
          "internalType": "uint256",
          "name": "_eventId",
          "type": "uint256"
        },
        {
          "internalType": "address",
          "name": "_participant",
          "type": "address"
        }
      ],
      "name": "checkIn",
      "outputs": [],
      "stateMutability": "nonpayable",
      "type": "function"
    },
    {
      "inputs": [
        {
          "internalType": "uint256",
          "name": "_eventId",
          "type": "uint256"
        }
      ],
      "name": "claimPayout",
      "outputs": [],
      "stateMutability": "nonpayable",
      "type": "function"
    },
    {
      "inputs": [
        {
          "internalType": "uint256",
          "name": "_eventId",
          "type": "uint256"
        }
      ],
      "name": "closeCheckIn",
      "outputs": [],
      "stateMutability": "nonpayable",
      "type": "function"
    },
    {
      "inputs": [
        {
          "internalType": "uint256",
          "name": "_eventId",
          "type": "uint256"
        }
      ],
      "name": "completeEvent",
      "outputs": [],
      "stateMutability": "nonpayable",
      "type": "function"
    },
    {
      "inputs": [],
      "name": "createAccount",
      "outputs": [],
      "stateMutability": "nonpayable",
      "type": "function"
    },
    {
      "inputs": [
        {
          "internalType": "string",
          "name": "_description",
          "type": "string"
        },
        {
          "internalType": "uint64",
          "name": "_startTime",
          "type": "uint64"
        },
        {
          "internalType": "uint64",
          "name": "_endTime",
          "type": "uint64"
        },
        {
          "internalType": "uint32",
          "name": "_capacity",
          "type": "uint32"
        }
      ],
      "name": "createEvent",
      "outputs": [
        {
          "internalType": "uint256",
          "name": "",
          "type": "uint256"
        }
      ],
      "stateMutability": "nonpayable",
      "type": "function"
    },
    {
      "inputs": [
        {
          "internalType": "uint256",
          "name": "",
          "type": "uint256"
        }
      ],
      "name": "events",
      "outputs": [
        {
          "internalType": "address",
          "name": "organizer",
          "type": "address"
        },
        {
          "internalType": "string",
          "name": "description",
          "type": "string"
        },
        {
          "internalType": "uint64",
          "name": "startTime",
          "type": "uint64"
        },
        {
          "internalType": "uint64",
          "name": "endTime",
          "type": "uint64"
        },
        {
          "internalType": "uint32",
          "name": "capacity",
          "type": "uint32"
        },
        {
          "internalType": "enum EventManager.EventStatus",
          "name": "status",
          "type": "uint8"
        },
        {
          "internalType": "bool",
          "name": "published",
          "type": "bool"
        },
        {
          "internalType": "bool",
          "name": "bondReleased",
          "type": "bool"
        },
        {
          "internalType": "bool",
          "name": "checkInClosed",
          "type": "bool"
        },
        {
          "internalType": "uint32",
          "name": "confirmedCount",
          "type": "uint32"
        },
        {
          "internalType": "uint32",
          "name": "attendedCount",
          "type": "uint32"
        },
        {
          "internalType": "uint256",
          "name": "forfeitPool",
          "type": "uint256"
        },
        {
          "internalType": "uint256",
          "name": "rewardPerAttendee",
          "type": "uint256"
        }
      ],
      "stateMutability": "view",
      "type": "function"
    },
    {
      "inputs": [
        {
          "internalType": "uint256",
          "name": "_eventId",
          "type": "uint256"
        },
        {
          "internalType": "address",
          "name": "_participant",
          "type": "address"
        }
      ],
      "name": "getClaimablePayout",
      "outputs": [
        {
          "internalType": "uint256",
          "name": "",
          "type": "uint256"
        }
      ],
      "stateMutability": "view",
      "type": "function"
    },
    {
      "inputs": [
        {
          "internalType": "uint256",
          "name": "_eventId",
          "type": "uint256"
        }
      ],
      "name": "getEvent",
      "outputs": [
        {
          "internalType": "address",
          "name": "organizer",
          "type": "address"
        },
        {
          "internalType": "string",
          "name": "description",
          "type": "string"
        },
        {
          "internalType": "uint64",
          "name": "startTime",
          "type": "uint64"
        },
        {
          "internalType": "uint64",
          "name": "endTime",
          "type": "uint64"
        },
        {
          "internalType": "uint32",
          "name": "capacity",
          "type": "uint32"
        },
        {
          "internalType": "enum EventManager.EventStatus",
          "name": "status",
          "type": "uint8"
        },
        {
          "internalType": "bool",
          "name": "published",
          "type": "bool"
        },
        {
          "internalType": "uint32",
          "name": "confirmedCount",
          "type": "uint32"
        },
        {
          "internalType": "uint32",
          "name": "attendedCount",
          "type": "uint32"
        }
      ],
      "stateMutability": "view",
      "type": "function"
    },
    {
      "inputs": [
        {
          "internalType": "uint256",
          "name": "_eventId",
          "type": "uint256"
        }
      ],
      "name": "getEventForfeitPool",
      "outputs": [
        {
          "internalType": "uint256",
          "name": "",
          "type": "uint256"
        }
      ],
      "stateMutability": "view",
      "type": "function"
    },
    {
      "inputs": [
        {
          "internalType": "uint256",
          "name": "_eventId",
          "type": "uint256"
        },
        {
          "internalType": "address",
          "name": "_participant",
          "type": "address"
        }
      ],
      "name": "getRegistration",
      "outputs": [
        {
          "internalType": "enum EventManager.RegStatus",
          "name": "status",
          "type": "uint8"
        },
        {
          "internalType": "bool",
          "name": "exists",
          "type": "bool"
        }
      ],
      "stateMutability": "view",
      "type": "function"
    },
    {
      "inputs": [
        {
          "internalType": "address",
          "name": "_user",
          "type": "address"
        }
      ],
      "name": "getUserBalance",
      "outputs": [
        {
          "internalType": "uint256",
          "name": "",
          "type": "uint256"
        }
      ],
      "stateMutability": "view",
      "type": "function"
    },
    {
      "inputs": [
        {
          "internalType": "address",
          "name": "",
          "type": "address"
        }
      ],
      "name": "isRegisteredUser",
      "outputs": [
        {
          "internalType": "bool",
          "name": "",
          "type": "bool"
        }
      ],
      "stateMutability": "view",
      "type": "function"
    },
    {
      "inputs": [],
      "name": "minAttendanceRatio",
      "outputs": [
        {
          "internalType": "uint16",
          "name": "",
          "type": "uint16"
        }
      ],
      "stateMutability": "view",
      "type": "function"
    },
    {
      "inputs": [],
      "name": "nextEventId",
      "outputs": [
        {
          "internalType": "uint256",
          "name": "",
          "type": "uint256"
        }
      ],
      "stateMutability": "view",
      "type": "function"
    },
    {
      "inputs": [],
      "name": "organizerBondAmount",
      "outputs": [
        {
          "internalType": "uint256",
          "name": "",
          "type": "uint256"
        }
      ],
      "stateMutability": "view",
      "type": "function"
    },
    {
      "inputs": [],
      "name": "owner",
      "outputs": [
        {
          "internalType": "address",
          "name": "",
          "type": "address"
        }
      ],
      "stateMutability": "view",
      "type": "function"
    },
    {
      "inputs": [],
      "name": "policy",
      "outputs": [
        {
          "internalType": "uint256",
          "name": "fullRefundHours",
          "type": "uint256"
        },
        {
          "internalType": "uint256",
          "name": "partialRefundHours",
          "type": "uint256"
        },
        {
          "internalType": "uint256",
          "name": "partialRefundPercent",
          "type": "uint256"
        },
        {
          "internalType": "uint256",
          "name": "attendeeSharePercent",
          "type": "uint256"
        }
      ],
      "stateMutability": "view",
      "type": "function"
    },
    {
      "inputs": [
        {
          "internalType": "uint256",
          "name": "_eventId",
          "type": "uint256"
        }
      ],
      "name": "publishEvent",
      "outputs": [],
      "stateMutability": "nonpayable",
      "type": "function"
    },
    {
      "inputs": [
        {
          "internalType": "uint256",
          "name": "_eventId",
          "type": "uint256"
        }
      ],
      "name": "registerForEvent",
      "outputs": [],
      "stateMutability": "nonpayable",
      "type": "function"
    },
    {
      "inputs": [],
      "name": "renounceOwnership",
      "outputs": [],
      "stateMutability": "nonpayable",
      "type": "function"
    },
    {
      "inputs": [
        {
          "internalType": "uint256",
          "name": "_deposit",
          "type": "uint256"
        }
      ],
      "name": "setAttendeeDepositAmount",
      "outputs": [],
      "stateMutability": "nonpayable",
      "type": "function"
    },
    {
      "inputs": [
        {
          "internalType": "uint16",
          "name": "_ratio",
          "type": "uint16"
        }
      ],
      "name": "setMinAttendanceRatio",
      "outputs": [],
      "stateMutability": "nonpayable",
      "type": "function"
    },
    {
      "inputs": [
        {
          "internalType": "uint256",
          "name": "_bond",
          "type": "uint256"
        }
      ],
      "name": "setOrganizerBondAmount",
      "outputs": [],
      "stateMutability": "nonpayable",
      "type": "function"
    },
    {
      "inputs": [],
      "name": "token",
      "outputs": [
        {
          "internalType": "contract IERC20",
          "name": "",
          "type": "address"
        }
      ],
      "stateMutability": "view",
      "type": "function"
    },
    {
      "inputs": [
        {
          "internalType": "address",
          "name": "newOwner",
          "type": "address"
        }
      ],
      "name": "transferOwnership",
      "outputs": [],
      "stateMutability": "nonpayable",
      "type": "function"
    },
    {
      "inputs": [
        {
          "internalType": "uint256",
          "name": "_fullRefundHours",
          "type": "uint256"
        },
        {
          "internalType": "uint256",
          "name": "_partialRefundHours",
          "type": "uint256"
        },
        {
          "internalType": "uint256",
          "name": "_partialRefundPercent",
          "type": "uint256"
        },
        {
          "internalType": "uint256",
          "name": "_attendeeSharePercent",
          "type": "uint256"
        }
      ],
      "name": "updatePolicy",
      "outputs": [],
      "stateMutability": "nonpayable",
      "type": "function"
    },
    {
      "inputs": [],
      "name": "withdraw",
      "outputs": [],
      "stateMutability": "nonpayable",
      "type": "function"
    }
  ],
  "transactionHash": "0xe0f73589ceeca7daf4c5147d05eb765a416ff9a04cc44cb5b1e53f96c2df1382",
  "args": [
    "0x617E9308eb2eBc07be4F62bC4b284c45EfF39907",
    "0xB957C7591bf8b8ad1e5B8942dE6FF3b1D22d4951"
  ],
  "numDeployments": 3,
  "solcInputHash": "268fa6d9b5b53d2c9a1f12f9ef33a903",
  "bytecode": "0x60a0346200017e57620025fd906001600160401b03601f38849003908101601f1916830190828211848310176200018357808491604096879485528339810103126200017e576020620000528362000199565b926001600160a01b039182916200006a910162000199565b169283156200016657600080546001600160a01b031981168617825590949083167f8be0079c531659141344cd1fd0a4f28419497f9722a3daafe3b4186f6b6457e08680a3600180556001600c5516608052670de0b6b3a7640000600255678ac7230489e80000600355610bb861ffff196004541617600455825191608083019183831090831117620001525750603291606091845260188152600260208201528284820152015260186005556002600655603260075560326008555161244e9081620001af82396080518181816101a401528181611023015281816114b101526118540152f35b634e487b7160e01b81526041600452602490fd5b8451631e4fbdf760e01b815260006004820152602490fd5b600080fd5b634e487b7160e01b600052604160045260246000fd5b51906001600160a01b03821682036200017e5756fe60808060405260048036101561001457600080fd5b60e0600035811c9283630505c8c914611e7e5750826305ce358d14611cd85782630b79143014611be657826317a9b2da14611b655782631b0e359a14611b455782631f5bdf5d14611b0657826327ad116a14611ae857826327c465b01461192d57826327e235e31461138f578263328c67ab1461190d5782633ccfd60b146117ea5782633f69babd146116fc578263406db843146113c9578263477348921461138f57826354417b4814611371578263547cf87814610f0f5782635af778b414610ef157826364dc6de014610e8e5782636778ba7814610e605782636d1884e014610da3578263715018a614610d4a5782638a69614e14610b045782638da5cb5b14610adb578263975d2502146109605782639b7aea75146106e45782639dca362f1461063e5782639dff20ac1461060f5782639f9d903a146105f1578263ad8d5eff146103a457508163c96c908e14610383578163cfd9f3da14610266578163f2fde38b146101d8575063fc0c546a1461018e57600080fd5b346101d35760003660031901126101d3576040517f00000000000000000000000000000000000000000000000000000000000000006001600160a01b03168152602090f35b600080fd5b346101d35760203660031901126101d3576101f161202d565b6101f9612059565b6001600160a01b0390811691821561024e5750600054826bffffffffffffffffffffffff60a01b821617600055167f8be0079c531659141344cd1fd0a4f28419497f9722a3daafe3b4186f6b6457e0600080a3005b602490600060405191631e4fbdf760e01b8352820152fd5b346101d35760203660031901126101d35780356000818152600b6020526040902080549192916001600160a01b0316330361033f576002019081549060ff8260a01c166102b28161200d565b6102ef575061ffff60a01b191661010160a01b1790557f07686c23176326e4145b1f2801d466c9513d225ad3c5e11a485bae9973b80841600080a2005b60849060206040519162461bcd60e51b83528201526024808201527f4576656e7420616c7265616479207075626c6973686564206f722066696e616c6044820152631a5e995960e21b6064820152fd5b60405162461bcd60e51b8152602081840152601a60248201527f4f6e6c79206f7267616e697a65722063616e207075626c6973680000000000006044820152606490fd5b346101d35760003660031901126101d35761ffff6020915416604051908152f35b346101d35760403660031901126101d3578135906103c0612043565b9082600052602093600b855260406000209460018060a01b038087541633036105ad5760028701948554610405600160ff8360a01c166103ff8161200d565b1461210c565b67ffffffffffffffff811642106105755760b81c60ff16610538579060059116968760005201815260406000209182549160ff8360081c16156104f557600160ff84166104518161200d565b036104b257505060ff191660031790558154906001600160e01b03199061047983821c6121ae565b6001600160e01b0390931692901b161790557f21071e72b9a540ee79a41c3929bd97a87a8d723eb72d52ef08c603328417b580600080a3005b60405162461bcd60e51b815291820152601a60248201527f526567697374726174696f6e206e6f7420636f6e6669726d6564000000000000604482015260649150fd5b60405162461bcd60e51b815291820152601a60248201527f5061727469636970616e74206e6f742072656769737465726564000000000000604482015260649150fd5b60405162461bcd60e51b8152808501849052601660248201527510da1958dacb5a5b881c195c9a5bd90818db1bdcd95960521b6044820152606490fd5b60405162461bcd60e51b81528086018590526011602482015270115d995b9d081b9bdd081cdd185c9d1959607a1b6044820152606490fd5b60405162461bcd60e51b8152808401839052601b60248201527f4f6e6c79206f7267616e697a65722063616e20636865636b2d696e00000000006044820152606490fd5b346101d35760003660031901126101d3576020600c54604051908152f35b50346101d35760403660031901126101d35761063660209161062f612043565b9035612330565b604051908152f35b50346101d35760003660031901126101d35733600052600960205260ff604060002054166106a7573360005260096020526040600020600160ff19825416179055337f805996f252884581e2f74cf3d2b03564d5ec26ccc90850ae12653dc1b72d1fa2600080a2005b60649060206040519162461bcd60e51b835282015260166024820152754163636f756e7420616c72656164792065786973747360501b6044820152fd5b90346101d3576020806003193601126101d35781359161070261209d565b82600052600b825260406000209160018060a01b0391828454163314600285019081549067ffffffffffffffff8260401c1662015180810180911161094b578115610940575b50156108fe57610763600160ff8360a01c166103ff8161200d565b60ff8160b01c166108c2576107f2969763ffffffff61ffff612710948460ff6107bb9660b81c16156108a4575b50805462ff00ff60a01b19166201000360a01b179081905595549286901c9592169160c01c1661216e565b04908115801561089a575b1561081d575050600a9060035492845416600052526107eb604060002091825461214b565b905561228a565b7fbb85ff95aded757cf3b840cc38e6e719a2915827f28e3364f62cbefa25bbe2de600080a260018055005b61084261082f610849928496946121a1565b9461083d600354968761216e565b612181565b80946121a1565b9182610876575b5050508061085f575b5061228a565b61086e6003830191825461214b565b905583610859565b600a9185541660005252610890604060002091825461214b565b9055848080610850565b50818110156107c6565b60ff60b81b1916600160b81b1781556108bc8a6121c3565b8c610790565b60405162461bcd60e51b81528084018590526015602482015274109bdb9908185b1c9958591e481c995b19585cd959605a1b6044820152606490fd5b60648385806040519262461bcd60e51b845283015260248201527f4f6e6c79206f7267616e697a6572206f7220616674657220646561646c696e656044820152fd5b905042101589610748565b601185634e487b7160e01b6000525260246000fd5b50346101d35760203660031901126101d35780356000818152600b6020526040902080546001600160a01b03163303610a8d576002810180546109ae600160ff8360a01c166103ff8161200d565b67ffffffffffffffff8160401c164210610a535760ff8160b81c16610a0f5760ff60b81b1916600160b81b1790559091506109e8906121c3565b7fa06c27e213d7097ba1fb6dc326570195f90c66d55a76f7afa322223784382966600080a2005b60405162461bcd60e51b8152602081870152601760248201527f436865636b2d696e20616c726561647920636c6f7365640000000000000000006044820152606490fd5b60405162461bcd60e51b81526020818701526013602482015272115d995b9d081b9bdd08195b991959081e595d606a1b6044820152606490fd5b60405162461bcd60e51b8152602081850152602160248201527f4f6e6c79206f7267616e697a65722063616e20636c6f736520636865636b2d696044820152603760f91b6064820152608490fd5b346101d35760003660031901126101d3576000546040516001600160a01b039091168152602090f35b50346101d357602090816003193601126101d357803590610b2361209d565b81600052600b83526040600020903360005260058201845260406000206002830160ff815460a01c16610b558161200d565b60038114908115610d36575b5015610cfc5760ff825460081c1615610cb857600684013360005280875260ff60406000205416610c7b573360005286526040600020600160ff19825416179055600360ff6000935416610bb48161200d565b03610c2c575091610bf691610bed7f3300bdb359cfb956935bca32e9db727413eab1ca84341f2e36caea85bb796968946002549061214b565b9101549061214b565b925b83610c0d575b6040519384523393a360018055005b33600052600a81526040600020610c2585825461214b565b9055610bfe565b60ff91959350600292505460a01c16610c448161200d565b14610c71575b7f3300bdb359cfb956935bca32e9db727413eab1ca84341f2e36caea85bb79696890610bf8565b6002549250610c4a565b60405162461bcd60e51b8152808501889052601660248201527514185e5bdd5d08185b1c9958591e4818db185a5b595960521b6044820152606490fd5b60405162461bcd60e51b8152808401879052601860248201527f4e6f74207265676973746572656420666f72206576656e7400000000000000006044820152606490fd5b60405162461bcd60e51b81528084018790526013602482015272115d995b9d081b9bdd08199a5b985b1a5e9959606a1b6044820152606490fd5b60029150610d438161200d565b1487610b61565b346101d35760003660031901126101d357610d63612059565b600080546001600160a01b0319811682556001600160a01b03167f8be0079c531659141344cd1fd0a4f28419497f9722a3daafe3b4186f6b6457e08280a3005b90346101d35760203660031901126101d35735600052600b602052604060002060018060a01b03815416906002810154610de6600160ff8360a01c169301611f27565b93610e036040519586958652610120806020880152860190611fcd565b9267ffffffffffffffff80841660408701528360401c16606086015263ffffffff90818460801c166080870152610e398161200d565b60a086015260ff8360a81c16151560c08601528260c01c16818501521c6101008301520390f35b50346101d35760203660031901126101d35735600052600b6020526020600360406000200154604051908152f35b50346101d35760403660031901126101d357610ea8612043565b9035600052600b60205260056040600020019060018060a01b03166000526020526040806000205460ff80821691835192610ee28161200d565b835260081c1615156020820152f35b346101d35760003660031901126101d3576020604051620151808152f35b50346101d35760803660031901126101d35767ffffffffffffffff9080358281116101d357366023820112156101d357808201359280841161135c5760405193610f63601f8201601f191660200186611eef565b808552602492368483830101116101d357816000928560209301838901378601015281359080821682036101d357604435818116918282036101d3576064359263ffffffff8416908185036101d357610fba61209d565b336000526009602052610fd460ff604060002054166120c0565b4283871611156113195782861610156112cc571561128957600354604080516323b872dd60e01b81523389820190815230602082810191909152928101939093529182908190606001038160007f00000000000000000000000000000000000000000000000000000000000000006001600160a01b03165af1801561127d5761124e575b50600c54946000199687871461123b57600197888801600c5587600052600b602052604060002092336bffffffffffffffffffffffff60a01b8554161784558a51928584116112285750506110af89840154611eb5565b99601f8b116111df575b60209a508a90601f8411600114611161579267ffffffffffffffff60401b9594928192600295600093611156575b5050828c1b9260031b1c191617898201555b01941669ffffffffffffffffffff60b01b855416179160401b16179063ffffffff60801b9060801b161790556040519133827fe43349c008949cf6b65249356e6f918d4aaa0ca79f2b1166df4a4a98c9c16de2600080a380558152f35b015191508d806110e7565b90918a9392601f198416928587016000528d6000209360005b8181106111c857509185939167ffffffffffffffff60401b9998966002989694106111b0575b50505050811b01898201556110f9565b01519060f88460031b161c191690558c8080806111a0565b8383015186558e9790950194928f01928f0161117a565b8984016000526020600020601f840160051c81019b6020851061121e575b601f0160051c019a5b8b811061121357506110b9565b600081558a01611206565b909b508b906111fd565b604190634e487b7160e01b600052526000fd5b601190634e487b7160e01b600052526000fd5b61126f9060203d602011611276575b6112678183611eef565b810190612085565b5087611058565b503d61125d565b6040513d6000823e3d90fd5b60405162461bcd60e51b81526020818801526019818701527f4361706163697479206d75737420626520706f736974697665000000000000006044820152606490fd5b60405162461bcd60e51b81526020818901526021818801527f456e642074696d65206d7573742062652061667465722073746172742074696d6044820152606560f81b6064820152608490fd5b60405162461bcd60e51b81526020818a0152601c818901527f53746172742074696d65206d75737420626520696e20667574757265000000006044820152606490fd5b604183634e487b7160e01b6000525260246000fd5b346101d35760003660031901126101d3576020600254604051908152f35b346101d35760203660031901126101d3576001600160a01b036113b061202d565b16600052600a6020526020604060002054604051908152f35b50346101d3576020806003193601126101d3578135916113e761209d565b336000526009825261140060ff604060002054166120c0565b82600052600b82526040600020906002820192835460ff8160a81c16156116c257600160ff8260a01c166114338161200d565b036116865763ffffffff93848260801c16858360c01c16101561164e57600501903360005281835260ff60406000205460081c166116155767ffffffffffffffff80911642116115db57600254604080516323b872dd60e01b81523387820190815230602082015291820192909252849082908190606001038160007f00000000000000000000000000000000000000000000000000000000000000006001600160a01b03165af1801561127d576115be575b50604051936040850191858310908311176115a957509161155c939161157c9695936040526001835281830191600183523360005252604060002091519061152d8261200d565b6115368261200d565b60ff61ff0084549251151560081b1692169061ffff191617179055825460c01c166121ae565b815463ffffffff60c01b191660c09190911b63ffffffff60c01b16179055565b33907fbffc23fac5cf8c1d58b292d148168dbea7741d95e8db7b124b4b2e7d5ba86a0f600080a360018055005b604190634e487b7160e01b6000525260246000fd5b6115d490843d8611611276576112678183611eef565b50876114e6565b60405162461bcd60e51b81528085018490526013602482015272149959da5cdd1c985d1a5bdb8818db1bdcd959606a1b6044820152606490fd5b60405162461bcd60e51b81528085018490526012602482015271105b1c9958591e481c9959da5cdd195c995960721b6044820152606490fd5b60405162461bcd60e51b815280850184905260116024820152704576656e7420617420636170616369747960781b6044820152606490fd5b60405162461bcd60e51b815280840183905260156024820152742932b3b4b9ba3930ba34b7b7103737ba1037b832b760591b6044820152606490fd5b60405162461bcd60e51b81528084018390526013602482015272115d995b9d081b9bdd081c1d589b1a5cda1959606a1b6044820152606490fd5b50346101d35760203660031901126101d35780359061171961209d565b81600052600b60205260406000209060018060a01b038083541633149081156117dc575b50156117985750600201805461175e600160ff8360a01c166103ff8161200d565b60ff60a01b1916600160a11b1790557fceaf11772900fe569752a0207c8639fb8228eb8663456dc9eaa3a08f927a8705600080a260018055005b60649060206040519162461bcd60e51b8352820152601760248201527f4f6e6c79206f7267616e697a6572206f722061646d696e0000000000000000006044820152fd5b90506000541633148461173d565b50346101d35760003660031901126101d35761180461209d565b33600052602090600a82526040600020549182156118d15733600052600a8152600060408120556040519163a9059cbb60e01b835233908301528260248301528082604481600060018060a01b037f0000000000000000000000000000000000000000000000000000000000000000165af191821561127d577f7fcf532c15f0a6db0bd6d0e038bea71d30d808c7d98cb3bf7268a95bf5081b65926118b4575b506040519283523392a260018055005b6118ca90823d8411611276576112678183611eef565b50836118a4565b60405162461bcd60e51b81529182015260166024820152754e6f2062616c616e636520746f20776974686472617760501b604482015260649150fd5b50346101d35760203660031901126101d357611927612059565b35600355005b50346101d357602090816003193601126101d35780359161194c61209d565b82600052600b8152604060002091336000526005830182526040600020805460ff8160081c1615611ab357600160ff82166119868161200d565b03611a6f5760029060ff1916179055600283019063ffffffff825460c01c16908115611a5a5750815463ffffffff60c01b191660001990910160c01b63ffffffff60c01b161790556119ee906119de6002548461220a565b9081611a3a575b506002546121a1565b9081611a22575b33837f28c1ca19ece093493fee87eac2cdf7cf4b2afe22d1932b761b994129a95c90cc600080a360018055005b6003611a31910191825461214b565b905581806119f5565b600a9033600052526040600020611a5282825461214b565b9055846119e5565b601190634e487b7160e01b6000525260246000fd5b60405162461bcd60e51b8152808401859052601760248201527f526567697374726174696f6e206e6f74206163746976650000000000000000006044820152606490fd5b60405162461bcd60e51b8152808401859052600e60248201526d139bdd081c9959da5cdd195c995960921b6044820152606490fd5b346101d35760003660031901126101d3576020600354604051908152f35b346101d35760203660031901126101d3576001600160a01b03611b2761202d565b166000526009602052602060ff604060002054166040519015158152f35b50346101d35760203660031901126101d357611b5f612059565b35600255005b50346101d35760203660031901126101d357803561ffff81168091036101d357611b8d612059565b6127108111611ba257815461ffff1916179055005b60405162461bcd60e51b8152602081840152601860248201527f526174696f2063616e6e6f7420657863656564203130302500000000000000006044820152606490fd5b346101d35760203660031901126101d3578135600052600b60205260406000209160018060a01b0383541691611c1e60018501611f27565b93600281015460ff8160a01c1693600383015492015492611c5160405197889788526101a08060208a0152880190611fcd565b9467ffffffffffffffff80841660408901528360401c16606088015263ffffffff90818460801c166080890152611c878161200d565b60a088015260ff8360a81c16151560c088015260ff8360b01c1615158288015260ff8360b81c1615156101008801528260c01c166101208701521c6101408501526101608401526101808301520390f35b50346101d35760803660031901126101d357803560249081359160443590606494853595611d04612059565b808411611e3d57808711611dfc57858510611daf575060405191608083019183831067ffffffffffffffff841117611228575050918560607f96eb93ab96e9a32e925882f91deeb81d6f79574242a67a2f79969d2f1302c8149793611daa95604052868152876020820152836040820152015283600555846006558060075581600855604051948594859094939260609260808301968352602083015260408201520152565b0390a1005b631d1a585b60e21b9060849360206040519462461bcd60e51b8652850152808401527f46756c6c20726566756e6420686f757273206d757374206265203e3d207061726044840152820152fd5b91601e9060206040519362461bcd60e51b85528401528201527f496e76616c696420617474656e6465652073686172652070657263656e7400006044820152fd5b91601e9060206040519362461bcd60e51b85528401528201527f496e76616c6964207061727469616c20726566756e642070657263656e7400006044820152fd5b346101d35760003660031901126101d357600554600654600754600854928452602084019190915260408301526060820152608090f35b90600182811c92168015611ee5575b6020831014611ecf57565b634e487b7160e01b600052602260045260246000fd5b91607f1691611ec4565b90601f8019910116810190811067ffffffffffffffff821117611f1157604052565b634e487b7160e01b600052604160045260246000fd5b9060405191826000825492611f3b84611eb5565b908184526001948581169081600014611faa5750600114611f67575b5050611f6592500383611eef565b565b9093915060005260209081600020936000915b818310611f92575050611f6593508201013880611f57565b85548884018501529485019487945091830191611f7a565b915050611f6594506020925060ff191682840152151560051b8201013880611f57565b919082519283825260005b848110611ff9575050826000602080949584010152601f8019910116010190565b602081830181015184830182015201611fd8565b6004111561201757565b634e487b7160e01b600052602160045260246000fd5b600435906001600160a01b03821682036101d357565b602435906001600160a01b03821682036101d357565b6000546001600160a01b0316330361206d57565b60405163118cdaa760e01b8152336004820152602490fd5b908160209103126101d3575180151581036101d35790565b6002600154146120ae576002600155565b604051633ee5aeb560e01b8152600490fd5b156120c757565b60405162461bcd60e51b815260206004820152601960248201527f4d75737420637265617465206163636f756e74206669727374000000000000006044820152606490fd5b1561211357565b60405162461bcd60e51b815260206004820152601060248201526f4576656e74206e6f742061637469766560801b6044820152606490fd5b9190820180921161215857565b634e487b7160e01b600052601160045260246000fd5b8181029291811591840414171561215857565b811561218b570490565b634e487b7160e01b600052601260045260246000fd5b9190820391821161215857565b63ffffffff8091169081146121585760010190565b600281015463ffffffff90818160e01c9160c01c16038181116121585716806121ea575050565b60036121fc612206926002549061216e565b920191825461214b565b9055565b6002015460009067ffffffffffffffff16428111156122845761222f915042906121a1565b60055490610e10918281029080820484149015171561215857811061225357505090565b600654828102928184041490151715612158571061227e5761227a6064916007549061216e565b0490565b50600090565b5061222f565b6003810154801561232c57600854606403606481116121585760646122b26122ba928461216e565b0480926121a1565b9080612302575b5060028201805460e01c1515806122f9575b156122ee576004916122e9915460e01c90612181565b910155565b505060046000910155565b508115156122d3565b60018060a01b03835416600052600a602052612324604060002091825461214b565b9055386122c1565b5050565b906000918252600b602052604082209060018060a01b031680835260058201602052604083209260ff600284015460a01c169161236c8361200d565b60038314159081612402575b81156123f2575b81156123da575b506123d35760ff60039194541661239c8161200d565b036123b757506004610bed6123b4936002549061214b565b90565b600291506123c48161200d565b146123cc5790565b5060025490565b9250505090565b82525060068301602052604081205460ff1638612386565b855460081c60ff1615915061237f565b905061240d8361200d565b60028314159061237856fea2646970667358221220b555d1b14615e4dfaaadb747253b5e09156b37ca0cdd3d76c2c45daa28c6e3f264736f6c63430008140033",
  "devdoc": {
    "details": "Participants put down deposits that are forfeited if they don't attend.      Forfeits are shared among actual attendees as rewards for showing up.",
    "errors": {
      "OwnableInvalidOwner(address)": [
        {
          "details": "The owner is not a valid owner account. (eg. `address(0)`)"
        }
      ],
      "OwnableUnauthorizedAccount(address)": [
        {
          "details": "The caller account is not authorized to perform an operation."
        }
      ],
      "ReentrancyGuardReentrantCall()": [
        {
          "details": "Unauthorized reentrant call."
        }
      ]
    },
    "kind": "dev",
    "methods": {
      "cancelEvent(uint256)": {
        "details": "Can be called by organizer or admin",
        "params": {
          "_eventId": "Event to cancel"
        }
      },
      "cancelRegistration(uint256)": {
        "params": {
          "_eventId": "Event to cancel registration for"
        }
      },
      "checkIn(uint256,address)": {
        "details": "Only callable by event organizer after event start time",
        "params": {
          "_eventId": "Event ID",
          "_participant": "Address to check in"
        }
      },
      "claimPayout(uint256)": {
        "details": "Returns deposit + reward share for attendees, or full deposit for canceled events",
        "params": {
          "_eventId": "Event to claim from"
        }
      },
      "closeCheckIn(uint256)": {
        "details": "Should be called after event ends, before completing",
        "params": {
          "_eventId": "Event to close check-in for"
        }
      },
      "completeEvent(uint256)": {
        "details": "Handles organizer bond, forfeit distribution, and reward calculation",
        "params": {
          "_eventId": "Event to complete"
        }
      },
      "createAccount()": {
        "details": "Simple gate to prevent accidental interactions"
      },
      "createEvent(string,uint64,uint64,uint32)": {
        "params": {
          "_capacity": "Maximum number of participants",
          "_description": "Event description",
          "_endTime": "When event ends (unix timestamp)",
          "_startTime": "When event begins (unix timestamp)"
        },
        "returns": {
          "_0": "eventId The ID of the created event"
        }
      },
      "getClaimablePayout(uint256,address)": {
        "params": {
          "_eventId": "Event ID",
          "_participant": "Participant address"
        },
        "returns": {
          "_0": "Claimable amount"
        }
      },
      "getEvent(uint256)": {
        "params": {
          "_eventId": "Event to query"
        }
      },
      "getEventForfeitPool(uint256)": {
        "params": {
          "_eventId": "Event ID"
        },
        "returns": {
          "_0": "Current forfeit pool amount"
        }
      },
      "getRegistration(uint256,address)": {
        "params": {
          "_eventId": "Event ID",
          "_participant": "Participant address"
        },
        "returns": {
          "exists": "Whether registration exists",
          "status": "Registration status"
        }
      },
      "getUserBalance(address)": {
        "params": {
          "_user": "User address"
        },
        "returns": {
          "_0": "Available balance"
        }
      },
      "owner()": {
        "details": "Returns the address of the current owner."
      },
      "publishEvent(uint256)": {
        "params": {
          "_eventId": "Event to publish"
        }
      },
      "registerForEvent(uint256)": {
        "params": {
          "_eventId": "Event to register for"
        }
      },
      "renounceOwnership()": {
        "details": "Leaves the contract without owner. It will not be possible to call `onlyOwner` functions. Can only be called by the current owner. NOTE: Renouncing ownership will leave the contract without an owner, thereby disabling any functionality that is only available to the owner."
      },
      "setAttendeeDepositAmount(uint256)": {
        "params": {
          "_deposit": "global deposit amount"
        }
      },
      "setMinAttendanceRatio(uint16)": {
        "params": {
          "_ratio": "minimum attendance ratio in basis points (0-10000, 3000 = 30%)"
        }
      },
      "setOrganizerBondAmount(uint256)": {
        "params": {
          "_bond": "global bond amount"
        }
      },
      "transferOwnership(address)": {
        "details": "Transfers ownership of the contract to a new account (`newOwner`). Can only be called by the current owner."
      },
      "updatePolicy(uint256,uint256,uint256,uint256)": {
        "params": {
          "_attendeeSharePercent": "Percentage of forfeits going to attendees (0-100)",
          "_fullRefundHours": "Hours before event for 100% refund",
          "_partialRefundHours": "Hours before event for partial refund",
          "_partialRefundPercent": "Percentage refund in partial window (0-100)"
        }
      },
      "withdraw()": {
        "details": "Transfers entire balance to save gas"
      }
    },
    "title": "EventManager",
    "version": 1
  },
  "userdoc": {
    "kind": "user",
    "methods": {
      "COMPLETION_DEADLINE()": {
        "notice": "Time after event ends when anyone can complete it (24 hours)"
      },
      "attendeeDepositAmount()": {
        "notice": "Global deposit amount required for all events"
      },
      "balances(address)": {
        "notice": "User balances available for withdrawal"
      },
      "cancelEvent(uint256)": {
        "notice": "Cancel event and trigger full refunds"
      },
      "cancelRegistration(uint256)": {
        "notice": "Cancel registration (may incur forfeit based on timing)"
      },
      "checkIn(uint256,address)": {
        "notice": "Check in a participant (marks them as attended)"
      },
      "claimPayout(uint256)": {
        "notice": "Claim payout after event completion/cancellation"
      },
      "closeCheckIn(uint256)": {
        "notice": "Close check-in period and process no-show forfeits"
      },
      "completeEvent(uint256)": {
        "notice": "Mark event as complete and process settlements"
      },
      "createAccount()": {
        "notice": "Create a user account (required before any other actions)"
      },
      "createEvent(string,uint64,uint64,uint32)": {
        "notice": "Create a new event (organizer pays bond upfront)"
      },
      "events(uint256)": {
        "notice": "All events stored by ID"
      },
      "getClaimablePayout(uint256,address)": {
        "notice": "Calculate claimable payout for a participant"
      },
      "getEvent(uint256)": {
        "notice": "Get basic event information"
      },
      "getEventForfeitPool(uint256)": {
        "notice": "Get current forfeit pool for an event"
      },
      "getRegistration(uint256,address)": {
        "notice": "Get participant's registration status for an event"
      },
      "getUserBalance(address)": {
        "notice": "Get user's available balance"
      },
      "isRegisteredUser(address)": {
        "notice": "Tracks if a user has created an account"
      },
      "minAttendanceRatio()": {
        "notice": "Global minimum attendance ratio for all events (in basis points, 3000 = 30%)"
      },
      "nextEventId()": {
        "notice": "Next event ID to assign. Currently we can use this for the sake of the hackathn."
      },
      "organizerBondAmount()": {
        "notice": "Global bond amount required for all organizers"
      },
      "policy()": {
        "notice": "Global refund policy configuration"
      },
      "publishEvent(uint256)": {
        "notice": "Make event visible and open for registration"
      },
      "registerForEvent(uint256)": {
        "notice": "Register for an event (pays deposit) Currently no need for registration approval."
      },
      "setAttendeeDepositAmount(uint256)": {
        "notice": "Update global deposit amount for all events"
      },
      "setMinAttendanceRatio(uint16)": {
        "notice": "Update global minimum attendance ratio for all events"
      },
      "setOrganizerBondAmount(uint256)": {
        "notice": "Update global bond amount for all organizers"
      },
      "token()": {
        "notice": "ERC20 token used for all deposits and bonds"
      },
      "updatePolicy(uint256,uint256,uint256,uint256)": {
        "notice": "Update global refund and forfeit policy"
      },
      "withdraw()": {
        "notice": "Withdraw available balance to external account"
      }
    },
    "notice": "Decentralized event management with accountability deposits",
    "version": 1
  },
  "storageLayout": {
    "storage": [
      {
        "astId": 8,
        "contract": "contracts/EventManager.sol:EventManager",
        "label": "_owner",
        "offset": 0,
        "slot": "0",
        "type": "t_address"
      },
      {
        "astId": 266,
        "contract": "contracts/EventManager.sol:EventManager",
        "label": "_status",
        "offset": 0,
        "slot": "1",
        "type": "t_uint256"
      },
      {
        "astId": 344,
        "contract": "contracts/EventManager.sol:EventManager",
        "label": "attendeeDepositAmount",
        "offset": 0,
        "slot": "2",
        "type": "t_uint256"
      },
      {
        "astId": 347,
        "contract": "contracts/EventManager.sol:EventManager",
        "label": "organizerBondAmount",
        "offset": 0,
        "slot": "3",
        "type": "t_uint256"
      },
      {
        "astId": 350,
        "contract": "contracts/EventManager.sol:EventManager",
        "label": "minAttendanceRatio",
        "offset": 0,
        "slot": "4",
        "type": "t_uint16"
      },
      {
        "astId": 354,
        "contract": "contracts/EventManager.sol:EventManager",
        "label": "policy",
        "offset": 0,
        "slot": "5",
        "type": "t_struct(PolicyConfig)388_storage"
      },
      {
        "astId": 359,
        "contract": "contracts/EventManager.sol:EventManager",
        "label": "isRegisteredUser",
        "offset": 0,
        "slot": "9",
        "type": "t_mapping(t_address,t_bool)"
      },
      {
        "astId": 364,
        "contract": "contracts/EventManager.sol:EventManager",
        "label": "balances",
        "offset": 0,
        "slot": "10",
        "type": "t_mapping(t_address,t_uint256)"
      },
      {
        "astId": 370,
        "contract": "contracts/EventManager.sol:EventManager",
        "label": "events",
        "offset": 0,
        "slot": "11",
        "type": "t_mapping(t_uint256,t_struct(Event)433_storage)"
      },
      {
        "astId": 374,
        "contract": "contracts/EventManager.sol:EventManager",
        "label": "nextEventId",
        "offset": 0,
        "slot": "12",
        "type": "t_uint256"
      }
    ],
    "types": {
      "t_address": {
        "encoding": "inplace",
        "label": "address",
        "numberOfBytes": "20"
      },
      "t_bool": {
        "encoding": "inplace",
        "label": "bool",
        "numberOfBytes": "1"
      },
      "t_enum(EventStatus)439": {
        "encoding": "inplace",
        "label": "enum EventManager.EventStatus",
        "numberOfBytes": "1"
      },
      "t_enum(RegStatus)445": {
        "encoding": "inplace",
        "label": "enum EventManager.RegStatus",
        "numberOfBytes": "1"
      },
      "t_mapping(t_address,t_bool)": {
        "encoding": "mapping",
        "key": "t_address",
        "label": "mapping(address => bool)",
        "numberOfBytes": "32",
        "value": "t_bool"
      },
      "t_mapping(t_address,t_struct(Registration)395_storage)": {
        "encoding": "mapping",
        "key": "t_address",
        "label": "mapping(address => struct EventManager.Registration)",
        "numberOfBytes": "32",
        "value": "t_struct(Registration)395_storage"
      },
      "t_mapping(t_address,t_uint256)": {
        "encoding": "mapping",
        "key": "t_address",
        "label": "mapping(address => uint256)",
        "numberOfBytes": "32",
        "value": "t_uint256"
      },
      "t_mapping(t_uint256,t_struct(Event)433_storage)": {
        "encoding": "mapping",
        "key": "t_uint256",
        "label": "mapping(uint256 => struct EventManager.Event)",
        "numberOfBytes": "32",
        "value": "t_struct(Event)433_storage"
      },
      "t_string_storage": {
        "encoding": "bytes",
        "label": "string",
        "numberOfBytes": "32"
      },
      "t_struct(Event)433_storage": {
        "encoding": "inplace",
        "label": "struct EventManager.Event",
        "members": [
          {
            "astId": 398,
            "contract": "contracts/EventManager.sol:EventManager",
            "label": "organizer",
            "offset": 0,
            "slot": "0",
            "type": "t_address"
          },
          {
            "astId": 400,
            "contract": "contracts/EventManager.sol:EventManager",
            "label": "description",
            "offset": 0,
            "slot": "1",
            "type": "t_string_storage"
          },
          {
            "astId": 402,
            "contract": "contracts/EventManager.sol:EventManager",
            "label": "startTime",
            "offset": 0,
            "slot": "2",
            "type": "t_uint64"
          },
          {
            "astId": 404,
            "contract": "contracts/EventManager.sol:EventManager",
            "label": "endTime",
            "offset": 8,
            "slot": "2",
            "type": "t_uint64"
          },
          {
            "astId": 406,
            "contract": "contracts/EventManager.sol:EventManager",
            "label": "capacity",
            "offset": 16,
            "slot": "2",
            "type": "t_uint32"
          },
          {
            "astId": 409,
            "contract": "contracts/EventManager.sol:EventManager",
            "label": "status",
            "offset": 20,
            "slot": "2",
            "type": "t_enum(EventStatus)439"
          },
          {
            "astId": 411,
            "contract": "contracts/EventManager.sol:EventManager",
            "label": "published",
            "offset": 21,
            "slot": "2",
            "type": "t_bool"
          },
          {
            "astId": 413,
            "contract": "contracts/EventManager.sol:EventManager",
            "label": "bondReleased",
            "offset": 22,
            "slot": "2",
            "type": "t_bool"
          },
          {
            "astId": 415,
            "contract": "contracts/EventManager.sol:EventManager",
            "label": "checkInClosed",
            "offset": 23,
            "slot": "2",
            "type": "t_bool"
          },
          {
            "astId": 417,
            "contract": "contracts/EventManager.sol:EventManager",
            "label": "confirmedCount",
            "offset": 24,
            "slot": "2",
            "type": "t_uint32"
          },
          {
            "astId": 419,
            "contract": "contracts/EventManager.sol:EventManager",
            "label": "attendedCount",
            "offset": 28,
            "slot": "2",
            "type": "t_uint32"
          },
          {
            "astId": 421,
            "contract": "contracts/EventManager.sol:EventManager",
            "label": "forfeitPool",
            "offset": 0,
            "slot": "3",
            "type": "t_uint256"
          },
          {
            "astId": 423,
            "contract": "contracts/EventManager.sol:EventManager",
            "label": "rewardPerAttendee",
            "offset": 0,
            "slot": "4",
            "type": "t_uint256"
          },
          {
            "astId": 428,
            "contract": "contracts/EventManager.sol:EventManager",
            "label": "registrations",
            "offset": 0,
            "slot": "5",
            "type": "t_mapping(t_address,t_struct(Registration)395_storage)"
          },
          {
            "astId": 432,
            "contract": "contracts/EventManager.sol:EventManager",
            "label": "rewardsClaimed",
            "offset": 0,
            "slot": "6",
            "type": "t_mapping(t_address,t_bool)"
          }
        ],
        "numberOfBytes": "224"
      },
      "t_struct(PolicyConfig)388_storage": {
        "encoding": "inplace",
        "label": "struct EventManager.PolicyConfig",
        "members": [
          {
            "astId": 381,
            "contract": "contracts/EventManager.sol:EventManager",
            "label": "fullRefundHours",
            "offset": 0,
            "slot": "0",
            "type": "t_uint256"
          },
          {
            "astId": 383,
            "contract": "contracts/EventManager.sol:EventManager",
            "label": "partialRefundHours",
            "offset": 0,
            "slot": "1",
            "type": "t_uint256"
          },
          {
            "astId": 385,
            "contract": "contracts/EventManager.sol:EventManager",
            "label": "partialRefundPercent",
            "offset": 0,
            "slot": "2",
            "type": "t_uint256"
          },
          {
            "astId": 387,
            "contract": "contracts/EventManager.sol:EventManager",
            "label": "attendeeSharePercent",
            "offset": 0,
            "slot": "3",
            "type": "t_uint256"
          }
        ],
        "numberOfBytes": "128"
      },
      "t_struct(Registration)395_storage": {
        "encoding": "inplace",
        "label": "struct EventManager.Registration",
        "members": [
          {
            "astId": 392,
            "contract": "contracts/EventManager.sol:EventManager",
            "label": "status",
            "offset": 0,
            "slot": "0",
            "type": "t_enum(RegStatus)445"
          },
          {
            "astId": 394,
            "contract": "contracts/EventManager.sol:EventManager",
            "label": "exists",
            "offset": 1,
            "slot": "0",
            "type": "t_bool"
          }
        ],
        "numberOfBytes": "32"
      },
      "t_uint16": {
        "encoding": "inplace",
        "label": "uint16",
        "numberOfBytes": "2"
      },
      "t_uint256": {
        "encoding": "inplace",
        "label": "uint256",
        "numberOfBytes": "32"
      },
      "t_uint32": {
        "encoding": "inplace",
        "label": "uint32",
        "numberOfBytes": "4"
      },
      "t_uint64": {
        "encoding": "inplace",
        "label": "uint64",
        "numberOfBytes": "8"
      }
    }
  }
}